{
  "contractName": "LionBase",
  "abi": [
    {
      "constant": true,
      "inputs": [
        {
          "name": "",
          "type": "uint256"
        }
      ],
      "name": "lionToOwner",
      "outputs": [
        {
          "name": "",
          "type": "address"
        }
      ],
      "payable": false,
      "stateMutability": "view",
      "type": "function"
    },
    {
      "constant": true,
      "inputs": [],
      "name": "owner",
      "outputs": [
        {
          "name": "",
          "type": "address"
        }
      ],
      "payable": false,
      "stateMutability": "view",
      "type": "function"
    },
    {
      "constant": true,
      "inputs": [
        {
          "name": "",
          "type": "uint256"
        }
      ],
      "name": "lions",
      "outputs": [
        {
          "name": "name",
          "type": "string"
        },
        {
          "name": "dna",
          "type": "uint256"
        },
        {
          "name": "price",
          "type": "uint256"
        },
        {
          "name": "onMarket",
          "type": "bool"
        }
      ],
      "payable": false,
      "stateMutability": "view",
      "type": "function"
    },
    {
      "inputs": [],
      "payable": false,
      "stateMutability": "nonpayable",
      "type": "constructor"
    },
    {
      "anonymous": false,
      "inputs": [
        {
          "indexed": false,
          "name": "lionId",
          "type": "uint256"
        },
        {
          "indexed": false,
          "name": "name",
          "type": "string"
        },
        {
          "indexed": false,
          "name": "dna",
          "type": "uint256"
        }
      ],
      "name": "NewLion",
      "type": "event"
    },
    {
      "anonymous": false,
      "inputs": [
        {
          "indexed": false,
          "name": "lionId",
          "type": "uint256"
        },
        {
          "indexed": false,
          "name": "price",
          "type": "uint256"
        }
      ],
      "name": "NewLionOnMarket",
      "type": "event"
    },
    {
      "constant": false,
      "inputs": [
        {
          "name": "_lionId",
          "type": "uint256"
        },
        {
          "name": "_newName",
          "type": "string"
        }
      ],
      "name": "changeName",
      "outputs": [],
      "payable": false,
      "stateMutability": "nonpayable",
      "type": "function"
    },
    {
      "constant": true,
      "inputs": [
        {
          "name": "_owner",
          "type": "address"
        }
      ],
      "name": "getLionsByOwner",
      "outputs": [
        {
          "name": "",
          "type": "uint256[]"
        }
      ],
      "payable": false,
      "stateMutability": "view",
      "type": "function"
    },
    {
      "constant": false,
      "inputs": [
        {
          "name": "_lionId",
          "type": "uint256"
        },
        {
          "name": "_price",
          "type": "uint256"
        }
      ],
      "name": "putLionOnMarket",
      "outputs": [],
      "payable": false,
      "stateMutability": "nonpayable",
      "type": "function"
    },
    {
      "constant": false,
      "inputs": [
        {
          "name": "_lionId",
          "type": "uint256"
        }
      ],
      "name": "cancelLionOnMarket",
      "outputs": [],
      "payable": false,
      "stateMutability": "nonpayable",
      "type": "function"
    },
    {
      "constant": false,
      "inputs": [
        {
          "name": "_lionId",
          "type": "uint256"
        }
      ],
      "name": "buyLion",
      "outputs": [],
      "payable": false,
      "stateMutability": "nonpayable",
      "type": "function"
    }
  ],
  "bytecode": "0x60606040526010600155600154600a0a600255341561001d57600080fd5b336000806101000a81548173ffffffffffffffffffffffffffffffffffffffff021916908373ffffffffffffffffffffffffffffffffffffffff1602179055506108568061006c6000396000f30060606040526004361061008e576000357c0100000000000000000000000000000000000000000000000000000000900463ffffffff16806312cf840f146100935780633840153a146100b657806352575033146101445780635b87a712146101a75780637b35c970146101d35780638da5cb5b146101f6578063a38adf3a1461024b578063c39cbef11461031d575b600080fd5b341561009e57600080fd5b6100b46004808035906020019091905050610354565b005b34156100c157600080fd5b6100ed600480803573ffffffffffffffffffffffffffffffffffffffff169060200190919050506103ff565b6040518080602001828103825283818151815260200191508051906020019060200280838360005b83811015610130578082015181840152602081019050610115565b505050509050019250505060405180910390f35b341561014f57600080fd5b610165600480803590602001909190505061052d565b604051808273ffffffffffffffffffffffffffffffffffffffff1673ffffffffffffffffffffffffffffffffffffffff16815260200191505060405180910390f35b34156101b257600080fd5b6101d16004808035906020019091908035906020019091905050610560565b005b34156101de57600080fd5b6101f4600480803590602001909190505061065a565b005b341561020157600080fd5b61020961065d565b604051808273ffffffffffffffffffffffffffffffffffffffff1673ffffffffffffffffffffffffffffffffffffffff16815260200191505060405180910390f35b341561025657600080fd5b61026c6004808035906020019091905050610682565b60405180806020018581526020018481526020018315151515815260200182810382528681815460018160011615610100020316600290048152602001915080546001816001161561010002031660029004801561030b5780601f106102e05761010080835404028352916020019161030b565b820191906000526020600020905b8154815290600101906020018083116102ee57829003601f168201915b50509550505050505060405180910390f35b341561032857600080fd5b610352600480803590602001909190803590602001908201803590602001919091929050506106cd565b005b806004600082815260200190815260200160002060009054906101000a900473ffffffffffffffffffffffffffffffffffffffff1673ffffffffffffffffffffffffffffffffffffffff163373ffffffffffffffffffffffffffffffffffffffff161415156103c257600080fd5b60006003838154811015156103d357fe5b906000526020600020906004020160030160006101000a81548160ff0219169083151502179055505050565b610407610771565b61040f610771565b600080600560008673ffffffffffffffffffffffffffffffffffffffff1673ffffffffffffffffffffffffffffffffffffffff1681526020019081526020016000205460405180591061045f5750595b9080825280602002602001820160405250925060009150600090505b600380549050811015610522578473ffffffffffffffffffffffffffffffffffffffff166004600083815260200190815260200160002060009054906101000a900473ffffffffffffffffffffffffffffffffffffffff1673ffffffffffffffffffffffffffffffffffffffff161415610515578083838151811015156104fe57fe5b906020019060200201818152505081806001019250505b808060010191505061047b565b829350505050919050565b60046020528060005260406000206000915054906101000a900473ffffffffffffffffffffffffffffffffffffffff1681565b816004600082815260200190815260200160002060009054906101000a900473ffffffffffffffffffffffffffffffffffffffff1673ffffffffffffffffffffffffffffffffffffffff163373ffffffffffffffffffffffffffffffffffffffff161415156105ce57600080fd5b6000821115156105dd57600080fd5b60016003848154811015156105ee57fe5b906000526020600020906004020160030160006101000a81548160ff0219169083151502179055507fe3cff128d56d9aef16afbde36f7518bd28f38b1571c08043d7e3d119ee06a1d88383604051808381526020018281526020019250505060405180910390a1505050565b50565b6000809054906101000a900473ffffffffffffffffffffffffffffffffffffffff1681565b60038181548110151561069157fe5b906000526020600020906004020160009150905080600001908060010154908060020154908060030160009054906101000a900460ff16905084565b826004600082815260200190815260200160002060009054906101000a900473ffffffffffffffffffffffffffffffffffffffff1673ffffffffffffffffffffffffffffffffffffffff163373ffffffffffffffffffffffffffffffffffffffff1614151561073b57600080fd5b828260038681548110151561074c57fe5b9060005260206000209060040201600001919061076a929190610785565b5050505050565b602060405190810160405280600081525090565b828054600181600116156101000203166002900490600052602060002090601f016020900481019282601f106107c657803560ff19168380011785556107f4565b828001600101855582156107f4579182015b828111156107f35782358255916020019190600101906107d8565b5b5090506108019190610805565b5090565b61082791905b8082111561082357600081600090555060010161080b565b5090565b905600a165627a7a7230582053bd66d28c77d7caf0271e3f70f43699ccabf5070fe3880922dea496c4161ae20029",
  "source": "pragma solidity ^0.4.18;\n\ncontract LionBase {\n\n    event NewLion(uint lionId, string name, uint dna);\n    event NewLionOnMarket(uint lionId, uint price);\n\n    address public owner;\n\n    uint dnaDigits = 16;\n    uint dnaModulus = 10 ** dnaDigits;\n\n    struct Lion {\n      string name;\n      uint dna;\n      uint price;\n      bool onMarket;\n    }\n\n\n    Lion[] public lions;\n\n    mapping (uint => address) public lionToOwner;\n    mapping (address => uint) ownerLionCount;\n\n    modifier onlyOwner() {\n        require(msg.sender == owner);\n        _;\n    }\n\n    modifier onlyLionOwner(uint _lionId) {\n        require(msg.sender == lionToOwner[_lionId]);\n        _;\n    }\n\n    function LionBase() public {\n        owner = msg.sender;\n    }\n\n    function _createLion(string _name, uint _dna) internal {\n        uint id = lions.push(Lion(_name, _dna, 0, false)) - 1;\n        lionToOwner[id] = msg.sender;\n        ownerLionCount[msg.sender]++;\n        NewLion(id, _name, _dna);\n    }\n\n    function _generateRandomDna(string _str) private view returns (uint) {\n        uint rand = uint(keccak256(_str));\n        return rand % dnaModulus;\n    }\n\n    // build something here to generate multiple lions and put them on the market\n\n    // function createRandomLion(string _name) public {\n    //     require(ownerLionCount[msg.sender] == 0);\n    //     uint randDna = _generateRandomDna(_name);\n    //     randDna = randDna - randDna % 100;\n    //     _createLion(_name, randDna);\n    // }\n\n\n    function changeName(uint _lionId, string _newName) external onlyLionOwner(_lionId) {\n        lions[_lionId].name = _newName;\n    }\n\n    function getLionsByOwner(address _owner) external view returns(uint[]) {\n        uint[] memory result = new uint[](ownerLionCount[_owner]);\n        uint counter = 0;\n        for (uint i = 0; i < lions.length; i++) {\n            if (lionToOwner[i] == _owner) {\n                result[counter] = i;\n                counter++;\n            }\n        }\n        return result;\n    }\n\n    function putLionOnMarket(uint _lionId, uint _price) public onlyLionOwner(_lionId) {\n        require (_price > 0);\n        lions[_lionId].onMarket = true;\n        NewLionOnMarket(_lionId, _price);\n    }\n\n    function cancelLionOnMarket(uint _lionId) public onlyLionOwner(_lionId) {\n        lions[_lionId].onMarket = false;\n    }\n\n    // build the token first\n    function buyLion(uint _lionId) public {\n    }\n}\n\n",
  "sourcePath": "/home/arturo/CodeProjects/lions/crypto-lions/contracts/LionBase.sol",
  "compiler": {
    "name": "solc",
    "version": "0.4.19+commit.c4cbbb05.Emscripten.clang"
  },
  "schemaVersion": "2.0.0",
  "updatedAt": "2018-03-01T15:57:13.390Z"
}