{
  "contractName": "LionBase",
  "abi": [
    {
      "constant": true,
      "inputs": [],
      "name": "name",
      "outputs": [
        {
          "name": "",
          "type": "string"
        }
      ],
      "payable": false,
      "stateMutability": "view",
      "type": "function"
    },
    {
      "constant": false,
      "inputs": [
        {
          "name": "_spender",
          "type": "address"
        },
        {
          "name": "_value",
          "type": "uint256"
        }
      ],
      "name": "approve",
      "outputs": [
        {
          "name": "",
          "type": "bool"
        }
      ],
      "payable": false,
      "stateMutability": "nonpayable",
      "type": "function"
    },
    {
      "constant": true,
      "inputs": [],
      "name": "totalSupply",
      "outputs": [
        {
          "name": "",
          "type": "uint256"
        }
      ],
      "payable": false,
      "stateMutability": "view",
      "type": "function"
    },
    {
      "constant": false,
      "inputs": [
        {
          "name": "_from",
          "type": "address"
        },
        {
          "name": "_to",
          "type": "address"
        },
        {
          "name": "_value",
          "type": "uint256"
        }
      ],
      "name": "transferFrom",
      "outputs": [
        {
          "name": "",
          "type": "bool"
        }
      ],
      "payable": false,
      "stateMutability": "nonpayable",
      "type": "function"
    },
    {
      "constant": true,
      "inputs": [],
      "name": "INITIAL_SUPPLY",
      "outputs": [
        {
          "name": "",
          "type": "uint256"
        }
      ],
      "payable": false,
      "stateMutability": "view",
      "type": "function"
    },
    {
      "constant": true,
      "inputs": [],
      "name": "decimals",
      "outputs": [
        {
          "name": "",
          "type": "uint8"
        }
      ],
      "payable": false,
      "stateMutability": "view",
      "type": "function"
    },
    {
      "constant": true,
      "inputs": [
        {
          "name": "",
          "type": "uint256"
        }
      ],
      "name": "lionToOwner",
      "outputs": [
        {
          "name": "",
          "type": "address"
        }
      ],
      "payable": false,
      "stateMutability": "view",
      "type": "function"
    },
    {
      "constant": false,
      "inputs": [
        {
          "name": "_spender",
          "type": "address"
        },
        {
          "name": "_subtractedValue",
          "type": "uint256"
        }
      ],
      "name": "decreaseApproval",
      "outputs": [
        {
          "name": "",
          "type": "bool"
        }
      ],
      "payable": false,
      "stateMutability": "nonpayable",
      "type": "function"
    },
    {
      "constant": true,
      "inputs": [
        {
          "name": "_owner",
          "type": "address"
        }
      ],
      "name": "balanceOf",
      "outputs": [
        {
          "name": "balance",
          "type": "uint256"
        }
      ],
      "payable": false,
      "stateMutability": "view",
      "type": "function"
    },
    {
      "constant": true,
      "inputs": [],
      "name": "owner",
      "outputs": [
        {
          "name": "",
          "type": "address"
        }
      ],
      "payable": false,
      "stateMutability": "view",
      "type": "function"
    },
    {
      "constant": true,
      "inputs": [],
      "name": "symbol",
      "outputs": [
        {
          "name": "",
          "type": "string"
        }
      ],
      "payable": false,
      "stateMutability": "view",
      "type": "function"
    },
    {
      "constant": true,
      "inputs": [
        {
          "name": "",
          "type": "uint256"
        }
      ],
      "name": "lions",
      "outputs": [
        {
          "name": "name",
          "type": "string"
        },
        {
          "name": "dna",
          "type": "uint256"
        },
        {
          "name": "price",
          "type": "uint256"
        },
        {
          "name": "onMarket",
          "type": "bool"
        }
      ],
      "payable": false,
      "stateMutability": "view",
      "type": "function"
    },
    {
      "constant": false,
      "inputs": [
        {
          "name": "_to",
          "type": "address"
        },
        {
          "name": "_value",
          "type": "uint256"
        }
      ],
      "name": "transfer",
      "outputs": [
        {
          "name": "",
          "type": "bool"
        }
      ],
      "payable": false,
      "stateMutability": "nonpayable",
      "type": "function"
    },
    {
      "constant": false,
      "inputs": [
        {
          "name": "_spender",
          "type": "address"
        },
        {
          "name": "_addedValue",
          "type": "uint256"
        }
      ],
      "name": "increaseApproval",
      "outputs": [
        {
          "name": "",
          "type": "bool"
        }
      ],
      "payable": false,
      "stateMutability": "nonpayable",
      "type": "function"
    },
    {
      "constant": true,
      "inputs": [
        {
          "name": "_owner",
          "type": "address"
        },
        {
          "name": "_spender",
          "type": "address"
        }
      ],
      "name": "allowance",
      "outputs": [
        {
          "name": "",
          "type": "uint256"
        }
      ],
      "payable": false,
      "stateMutability": "view",
      "type": "function"
    },
    {
      "inputs": [],
      "payable": false,
      "stateMutability": "nonpayable",
      "type": "constructor"
    },
    {
      "anonymous": false,
      "inputs": [
        {
          "indexed": false,
          "name": "lionId",
          "type": "uint256"
        },
        {
          "indexed": false,
          "name": "name",
          "type": "string"
        },
        {
          "indexed": false,
          "name": "dna",
          "type": "uint256"
        }
      ],
      "name": "NewLion",
      "type": "event"
    },
    {
      "anonymous": false,
      "inputs": [
        {
          "indexed": false,
          "name": "lionId",
          "type": "uint256"
        },
        {
          "indexed": false,
          "name": "price",
          "type": "uint256"
        }
      ],
      "name": "NewLionOnMarket",
      "type": "event"
    },
    {
      "anonymous": false,
      "inputs": [
        {
          "indexed": false,
          "name": "lionId",
          "type": "uint256"
        },
        {
          "indexed": false,
          "name": "price",
          "type": "uint256"
        },
        {
          "indexed": false,
          "name": "oldOwner",
          "type": "address"
        },
        {
          "indexed": false,
          "name": "newOwner",
          "type": "address"
        }
      ],
      "name": "LionSold",
      "type": "event"
    },
    {
      "anonymous": false,
      "inputs": [
        {
          "indexed": false,
          "name": "lionId",
          "type": "uint256"
        },
        {
          "indexed": false,
          "name": "price",
          "type": "uint256"
        }
      ],
      "name": "LionPriceChanged",
      "type": "event"
    },
    {
      "anonymous": false,
      "inputs": [
        {
          "indexed": true,
          "name": "owner",
          "type": "address"
        },
        {
          "indexed": true,
          "name": "spender",
          "type": "address"
        },
        {
          "indexed": false,
          "name": "value",
          "type": "uint256"
        }
      ],
      "name": "Approval",
      "type": "event"
    },
    {
      "anonymous": false,
      "inputs": [
        {
          "indexed": true,
          "name": "from",
          "type": "address"
        },
        {
          "indexed": true,
          "name": "to",
          "type": "address"
        },
        {
          "indexed": false,
          "name": "value",
          "type": "uint256"
        }
      ],
      "name": "Transfer",
      "type": "event"
    },
    {
      "constant": false,
      "inputs": [
        {
          "name": "_name",
          "type": "string"
        }
      ],
      "name": "createRandomLion",
      "outputs": [],
      "payable": false,
      "stateMutability": "nonpayable",
      "type": "function"
    },
    {
      "constant": false,
      "inputs": [
        {
          "name": "_lionId",
          "type": "uint256"
        },
        {
          "name": "_newName",
          "type": "string"
        }
      ],
      "name": "changeLionName",
      "outputs": [],
      "payable": false,
      "stateMutability": "nonpayable",
      "type": "function"
    },
    {
      "constant": true,
      "inputs": [
        {
          "name": "_owner",
          "type": "address"
        }
      ],
      "name": "getLionsByOwner",
      "outputs": [
        {
          "name": "",
          "type": "uint256[]"
        }
      ],
      "payable": false,
      "stateMutability": "view",
      "type": "function"
    },
    {
      "constant": false,
      "inputs": [
        {
          "name": "_lionId",
          "type": "uint256"
        },
        {
          "name": "_price",
          "type": "uint256"
        }
      ],
      "name": "setLionPrice",
      "outputs": [],
      "payable": false,
      "stateMutability": "nonpayable",
      "type": "function"
    },
    {
      "constant": false,
      "inputs": [
        {
          "name": "_lionId",
          "type": "uint256"
        },
        {
          "name": "_price",
          "type": "uint256"
        }
      ],
      "name": "putLionOnMarket",
      "outputs": [],
      "payable": false,
      "stateMutability": "nonpayable",
      "type": "function"
    },
    {
      "constant": false,
      "inputs": [
        {
          "name": "_lionId",
          "type": "uint256"
        }
      ],
      "name": "cancelLionOnMarket",
      "outputs": [],
      "payable": false,
      "stateMutability": "nonpayable",
      "type": "function"
    },
    {
      "constant": false,
      "inputs": [
        {
          "name": "_lionId",
          "type": "uint256"
        }
      ],
      "name": "buyLion",
      "outputs": [],
      "payable": true,
      "stateMutability": "payable",
      "type": "function"
    },
    {
      "constant": true,
      "inputs": [],
      "name": "getLionsOnMarket",
      "outputs": [
        {
          "name": "",
          "type": "uint256[]"
        }
      ],
      "payable": false,
      "stateMutability": "view",
      "type": "function"
    }
  ],
  "bytecode": "0x60606040526010600455600454600a0a6005556611c37937e08000600755341561002857600080fd5b601260ff16600a0a69d3c21bcecceda100000002600181905550601260ff16600a0a69d3c21bcecceda1000000026000803373ffffffffffffffffffffffffffffffffffffffff1673ffffffffffffffffffffffffffffffffffffffff168152602001908152602001600020819055503373ffffffffffffffffffffffffffffffffffffffff1660007fddf252ad1be2c89b69c2b068fc378daa952ba7f163c4a11628f55a4df523b3ef601260ff16600a0a69d3c21bcecceda1000000026040518082815260200191505060405180910390a333600360006101000a81548173ffffffffffffffffffffffffffffffffffffffff021916908373ffffffffffffffffffffffffffffffffffffffff1602179055506124798061014b6000396000f300606060405260043610610133576000357c0100000000000000000000000000000000000000000000000000000000900463ffffffff16806306fdde0314610138578063095ea7b3146101c657806312cf840f1461022057806318160ddd1461024357806323b872dd1461026c5780632acb42bb146102e55780632ff2e9dc1461034f578063313ce567146103785780633840153a146103a75780635076067a14610435578063525750331461046c5780635b87a712146104cf57806366188463146104fb57806366cc46331461055557806370a08231146105b25780637b35c970146105ff5780638da5cb5b1461061757806395d89b411461066c578063a38adf3a146106fa578063a9059cbb146107cc578063d73dd62314610826578063dd62ed3e14610880578063f94d3357146108ec575b600080fd5b341561014357600080fd5b61014b610918565b6040518080602001828103825283818151815260200191508051906020019080838360005b8381101561018b578082015181840152602081019050610170565b50505050905090810190601f1680156101b85780820380516001836020036101000a031916815260200191505b509250505060405180910390f35b34156101d157600080fd5b610206600480803573ffffffffffffffffffffffffffffffffffffffff16906020019091908035906020019091905050610951565b604051808215151515815260200191505060405180910390f35b341561022b57600080fd5b6102416004808035906020019091905050610a43565b005b341561024e57600080fd5b610256610b01565b6040518082815260200191505060405180910390f35b341561027757600080fd5b6102cb600480803573ffffffffffffffffffffffffffffffffffffffff1690602001909190803573ffffffffffffffffffffffffffffffffffffffff16906020019091908035906020019091905050610b0b565b604051808215151515815260200191505060405180910390f35b34156102f057600080fd5b6102f8610ec5565b6040518080602001828103825283818151815260200191508051906020019060200280838360005b8381101561033b578082015181840152602081019050610320565b505050509050019250505060405180910390f35b341561035a57600080fd5b610362610f80565b6040518082815260200191505060405180910390f35b341561038357600080fd5b61038b610f97565b604051808260ff1660ff16815260200191505060405180910390f35b34156103b257600080fd5b6103de600480803573ffffffffffffffffffffffffffffffffffffffff16906020019091905050610f9c565b6040518080602001828103825283818151815260200191508051906020019060200280838360005b83811015610421578082015181840152602081019050610406565b505050509050019250505060405180910390f35b341561044057600080fd5b61046a600480803590602001909190803590602001908201803590602001919091929050506110ca565b005b341561047757600080fd5b61048d600480803590602001909190505061116e565b604051808273ffffffffffffffffffffffffffffffffffffffff1673ffffffffffffffffffffffffffffffffffffffff16815260200191505060405180910390f35b34156104da57600080fd5b6104f960048080359060200190919080359060200190919050506111a1565b005b341561050657600080fd5b61053b600480803573ffffffffffffffffffffffffffffffffffffffff169060200190919080359060200190919050506112ad565b604051808215151515815260200191505060405180910390f35b341561056057600080fd5b6105b0600480803590602001908201803590602001908080601f0160208091040260200160405190810160405280939291908181526020018383808284378201915050505050509190505061153e565b005b34156105bd57600080fd5b6105e9600480803573ffffffffffffffffffffffffffffffffffffffff169060200190919050506115c6565b6040518082815260200191505060405180910390f35b610615600480803590602001909190505061160e565b005b341561062257600080fd5b61062a61194b565b604051808273ffffffffffffffffffffffffffffffffffffffff1673ffffffffffffffffffffffffffffffffffffffff16815260200191505060405180910390f35b341561067757600080fd5b61067f611971565b6040518080602001828103825283818151815260200191508051906020019080838360005b838110156106bf5780820151818401526020810190506106a4565b50505050905090810190601f1680156106ec5780820380516001836020036101000a031916815260200191505b509250505060405180910390f35b341561070557600080fd5b61071b60048080359060200190919050506119aa565b6040518080602001858152602001848152602001831515151581526020018281038252868181546001816001161561010002031660029004815260200191508054600181600116156101000203166002900480156107ba5780601f1061078f576101008083540402835291602001916107ba565b820191906000526020600020905b81548152906001019060200180831161079d57829003601f168201915b50509550505050505060405180910390f35b34156107d757600080fd5b61080c600480803573ffffffffffffffffffffffffffffffffffffffff169060200190919080359060200190919050506119f5565b604051808215151515815260200191505060405180910390f35b341561083157600080fd5b610866600480803573ffffffffffffffffffffffffffffffffffffffff16906020019091908035906020019091905050611c14565b604051808215151515815260200191505060405180910390f35b341561088b57600080fd5b6108d6600480803573ffffffffffffffffffffffffffffffffffffffff1690602001909190803573ffffffffffffffffffffffffffffffffffffffff16906020019091905050611e10565b6040518082815260200191505060405180910390f35b34156108f757600080fd5b6109166004808035906020019091908035906020019091905050611e97565b005b6040805190810160405280600d81526020017f4c696f6e436f696e54657374310000000000000000000000000000000000000081525081565b600081600260003373ffffffffffffffffffffffffffffffffffffffff1673ffffffffffffffffffffffffffffffffffffffff16815260200190815260200160002060008573ffffffffffffffffffffffffffffffffffffffff1673ffffffffffffffffffffffffffffffffffffffff168152602001908152602001600020819055508273ffffffffffffffffffffffffffffffffffffffff163373ffffffffffffffffffffffffffffffffffffffff167f8c5be1e5ebec7d5bd14f71427d1e84f3dd0314c0f7b2291e5b200ac8c7c3b925846040518082815260200191505060405180910390a36001905092915050565b806009600082815260200190815260200160002060009054906101000a900473ffffffffffffffffffffffffffffffffffffffff1673ffffffffffffffffffffffffffffffffffffffff163373ffffffffffffffffffffffffffffffffffffffff16141515610ab157600080fd5b6000600883815481101515610ac257fe5b906000526020600020906004020160030160006101000a81548160ff021916908315150217905550600660008154809291906001900391905055505050565b6000600154905090565b60008073ffffffffffffffffffffffffffffffffffffffff168373ffffffffffffffffffffffffffffffffffffffff1614151515610b4857600080fd5b6000808573ffffffffffffffffffffffffffffffffffffffff1673ffffffffffffffffffffffffffffffffffffffff168152602001908152602001600020548211151515610b9557600080fd5b600260008573ffffffffffffffffffffffffffffffffffffffff1673ffffffffffffffffffffffffffffffffffffffff16815260200190815260200160002060003373ffffffffffffffffffffffffffffffffffffffff1673ffffffffffffffffffffffffffffffffffffffff168152602001908152602001600020548211151515610c2057600080fd5b610c71826000808773ffffffffffffffffffffffffffffffffffffffff1673ffffffffffffffffffffffffffffffffffffffff16815260200190815260200160002054611f7e90919063ffffffff16565b6000808673ffffffffffffffffffffffffffffffffffffffff1673ffffffffffffffffffffffffffffffffffffffff16815260200190815260200160002081905550610d04826000808673ffffffffffffffffffffffffffffffffffffffff1673ffffffffffffffffffffffffffffffffffffffff16815260200190815260200160002054611f9790919063ffffffff16565b6000808573ffffffffffffffffffffffffffffffffffffffff1673ffffffffffffffffffffffffffffffffffffffff16815260200190815260200160002081905550610dd582600260008773ffffffffffffffffffffffffffffffffffffffff1673ffffffffffffffffffffffffffffffffffffffff16815260200190815260200160002060003373ffffffffffffffffffffffffffffffffffffffff1673ffffffffffffffffffffffffffffffffffffffff16815260200190815260200160002054611f7e90919063ffffffff16565b600260008673ffffffffffffffffffffffffffffffffffffffff1673ffffffffffffffffffffffffffffffffffffffff16815260200190815260200160002060003373ffffffffffffffffffffffffffffffffffffffff1673ffffffffffffffffffffffffffffffffffffffff168152602001908152602001600020819055508273ffffffffffffffffffffffffffffffffffffffff168473ffffffffffffffffffffffffffffffffffffffff167fddf252ad1be2c89b69c2b068fc378daa952ba7f163c4a11628f55a4df523b3ef846040518082815260200191505060405180910390a3600190509392505050565b610ecd612247565b610ed5612247565b600080600654604051805910610ee85750595b9080825280602002602001820160405250925060009150600090505b600880549050811015610f7757600881815481101515610f2057fe5b906000526020600020906004020160030160009054906101000a900460ff1615610f6a57808383815181101515610f5357fe5b906020019060200201818152505081806001019250505b8080600101915050610f04565b82935050505090565b601260ff16600a0a69d3c21bcecceda10000000281565b601281565b610fa4612247565b610fac612247565b600080600a60008673ffffffffffffffffffffffffffffffffffffffff1673ffffffffffffffffffffffffffffffffffffffff16815260200190815260200160002054604051805910610ffc5750595b9080825280602002602001820160405250925060009150600090505b6008805490508110156110bf578473ffffffffffffffffffffffffffffffffffffffff166009600083815260200190815260200160002060009054906101000a900473ffffffffffffffffffffffffffffffffffffffff1673ffffffffffffffffffffffffffffffffffffffff1614156110b25780838381518110151561109b57fe5b906020019060200201818152505081806001019250505b8080600101915050611018565b829350505050919050565b826009600082815260200190815260200160002060009054906101000a900473ffffffffffffffffffffffffffffffffffffffff1673ffffffffffffffffffffffffffffffffffffffff163373ffffffffffffffffffffffffffffffffffffffff1614151561113857600080fd5b828260088681548110151561114957fe5b9060005260206000209060040201600001919061116792919061225b565b5050505050565b60096020528060005260406000206000915054906101000a900473ffffffffffffffffffffffffffffffffffffffff1681565b816009600082815260200190815260200160002060009054906101000a900473ffffffffffffffffffffffffffffffffffffffff1673ffffffffffffffffffffffffffffffffffffffff163373ffffffffffffffffffffffffffffffffffffffff1614151561120f57600080fd5b60008211151561121e57600080fd5b600660008154809291906001019190505550600160088481548110151561124157fe5b906000526020600020906004020160030160006101000a81548160ff0219169083151502179055507fe3cff128d56d9aef16afbde36f7518bd28f38b1571c08043d7e3d119ee06a1d88383604051808381526020018281526020019250505060405180910390a1505050565b600080600260003373ffffffffffffffffffffffffffffffffffffffff1673ffffffffffffffffffffffffffffffffffffffff16815260200190815260200160002060008573ffffffffffffffffffffffffffffffffffffffff1673ffffffffffffffffffffffffffffffffffffffff168152602001908152602001600020549050808311156113be576000600260003373ffffffffffffffffffffffffffffffffffffffff1673ffffffffffffffffffffffffffffffffffffffff16815260200190815260200160002060008673ffffffffffffffffffffffffffffffffffffffff1673ffffffffffffffffffffffffffffffffffffffff16815260200190815260200160002081905550611452565b6113d18382611f7e90919063ffffffff16565b600260003373ffffffffffffffffffffffffffffffffffffffff1673ffffffffffffffffffffffffffffffffffffffff16815260200190815260200160002060008673ffffffffffffffffffffffffffffffffffffffff1673ffffffffffffffffffffffffffffffffffffffff168152602001908152602001600020819055505b8373ffffffffffffffffffffffffffffffffffffffff163373ffffffffffffffffffffffffffffffffffffffff167f8c5be1e5ebec7d5bd14f71427d1e84f3dd0314c0f7b2291e5b200ac8c7c3b925600260003373ffffffffffffffffffffffffffffffffffffffff1673ffffffffffffffffffffffffffffffffffffffff16815260200190815260200160002060008873ffffffffffffffffffffffffffffffffffffffff1673ffffffffffffffffffffffffffffffffffffffff168152602001908152602001600020546040518082815260200191505060405180910390a3600191505092915050565b6000600360009054906101000a900473ffffffffffffffffffffffffffffffffffffffff1673ffffffffffffffffffffffffffffffffffffffff163373ffffffffffffffffffffffffffffffffffffffff1614151561159c57600080fd5b6115a582611fb5565b90506064818115156115b357fe5b06810390506115c2828261204c565b5050565b60008060008373ffffffffffffffffffffffffffffffffffffffff1673ffffffffffffffffffffffffffffffffffffffff168152602001908152602001600020549050919050565b60008060075480341015151561162357600080fd5b6009600085815260200190815260200160002060009054906101000a900473ffffffffffffffffffffffffffffffffffffffff16925060088481548110151561166857fe5b9060005260206000209060040201600201549150816000803373ffffffffffffffffffffffffffffffffffffffff1673ffffffffffffffffffffffffffffffffffffffff16815260200190815260200160002054101515156116c957600080fd5b816000803373ffffffffffffffffffffffffffffffffffffffff1673ffffffffffffffffffffffffffffffffffffffff16815260200190815260200160002060008282540392505081905550816000808573ffffffffffffffffffffffffffffffffffffffff1673ffffffffffffffffffffffffffffffffffffffff16815260200190815260200160002060008282540192505081905550600060088581548110151561177257fe5b906000526020600020906004020160030160006101000a81548160ff02191690831515021790555060066000815480929190600190039190505550600a60008473ffffffffffffffffffffffffffffffffffffffff1673ffffffffffffffffffffffffffffffffffffffff1681526020019081526020016000206000815480929190600190039190505550336009600086815260200190815260200160002060006101000a81548173ffffffffffffffffffffffffffffffffffffffff021916908373ffffffffffffffffffffffffffffffffffffffff160217905550600a60003373ffffffffffffffffffffffffffffffffffffffff1673ffffffffffffffffffffffffffffffffffffffff168152602001908152602001600020600081548092919060010191905055507ffa4d22ace733e22850554bc2c9d941df600aeb4cc5810656d1ce8fc96c415df284838533604051808581526020018481526020018373ffffffffffffffffffffffffffffffffffffffff1673ffffffffffffffffffffffffffffffffffffffff1681526020018273ffffffffffffffffffffffffffffffffffffffff1673ffffffffffffffffffffffffffffffffffffffff16815260200194505050505060405180910390a150505050565b600360009054906101000a900473ffffffffffffffffffffffffffffffffffffffff1681565b6040805190810160405280600481526020017f4c4354310000000000000000000000000000000000000000000000000000000081525081565b6008818154811015156119b957fe5b906000526020600020906004020160009150905080600001908060010154908060020154908060030160009054906101000a900460ff16905084565b60008073ffffffffffffffffffffffffffffffffffffffff168373ffffffffffffffffffffffffffffffffffffffff1614151515611a3257600080fd5b6000803373ffffffffffffffffffffffffffffffffffffffff1673ffffffffffffffffffffffffffffffffffffffff168152602001908152602001600020548211151515611a7f57600080fd5b611ad0826000803373ffffffffffffffffffffffffffffffffffffffff1673ffffffffffffffffffffffffffffffffffffffff16815260200190815260200160002054611f7e90919063ffffffff16565b6000803373ffffffffffffffffffffffffffffffffffffffff1673ffffffffffffffffffffffffffffffffffffffff16815260200190815260200160002081905550611b63826000808673ffffffffffffffffffffffffffffffffffffffff1673ffffffffffffffffffffffffffffffffffffffff16815260200190815260200160002054611f9790919063ffffffff16565b6000808573ffffffffffffffffffffffffffffffffffffffff1673ffffffffffffffffffffffffffffffffffffffff168152602001908152602001600020819055508273ffffffffffffffffffffffffffffffffffffffff163373ffffffffffffffffffffffffffffffffffffffff167fddf252ad1be2c89b69c2b068fc378daa952ba7f163c4a11628f55a4df523b3ef846040518082815260200191505060405180910390a36001905092915050565b6000611ca582600260003373ffffffffffffffffffffffffffffffffffffffff1673ffffffffffffffffffffffffffffffffffffffff16815260200190815260200160002060008673ffffffffffffffffffffffffffffffffffffffff1673ffffffffffffffffffffffffffffffffffffffff16815260200190815260200160002054611f9790919063ffffffff16565b600260003373ffffffffffffffffffffffffffffffffffffffff1673ffffffffffffffffffffffffffffffffffffffff16815260200190815260200160002060008573ffffffffffffffffffffffffffffffffffffffff1673ffffffffffffffffffffffffffffffffffffffff168152602001908152602001600020819055508273ffffffffffffffffffffffffffffffffffffffff163373ffffffffffffffffffffffffffffffffffffffff167f8c5be1e5ebec7d5bd14f71427d1e84f3dd0314c0f7b2291e5b200ac8c7c3b925600260003373ffffffffffffffffffffffffffffffffffffffff1673ffffffffffffffffffffffffffffffffffffffff16815260200190815260200160002060008773ffffffffffffffffffffffffffffffffffffffff1673ffffffffffffffffffffffffffffffffffffffff168152602001908152602001600020546040518082815260200191505060405180910390a36001905092915050565b6000600260008473ffffffffffffffffffffffffffffffffffffffff1673ffffffffffffffffffffffffffffffffffffffff16815260200190815260200160002060008373ffffffffffffffffffffffffffffffffffffffff1673ffffffffffffffffffffffffffffffffffffffff16815260200190815260200160002054905092915050565b816009600082815260200190815260200160002060009054906101000a900473ffffffffffffffffffffffffffffffffffffffff1673ffffffffffffffffffffffffffffffffffffffff163373ffffffffffffffffffffffffffffffffffffffff16141515611f0557600080fd5b60008210151515611f1557600080fd5b81600884815481101515611f2557fe5b9060005260206000209060040201600201819055507f0cc5a531a20e7b19fdc76d3ecfa6773e97471114e5e5f5a65888868f275684158383604051808381526020018281526020019250505060405180910390a1505050565b6000828211151515611f8c57fe5b818303905092915050565b6000808284019050838110151515611fab57fe5b8091505092915050565b60008082426008805490506040518084805190602001908083835b602083101515611ff55780518252602082019150602081019050602083039250611fd0565b6001836020036101000a038019825116818451168082178552505050505050905001838152602001828152602001935050505060405180910390206001900490506005548181151561204357fe5b06915050919050565b600060016008805480600101828161206491906122db565b916000526020600020906004020160006080604051908101604052808881526020018781526020016000815260200160001515815250909190915060008201518160000190805190602001906120bb92919061230d565b50602082015181600101556040820151816002015560608201518160030160006101000a81548160ff0219169083151502179055505050039050336009600083815260200190815260200160002060006101000a81548173ffffffffffffffffffffffffffffffffffffffff021916908373ffffffffffffffffffffffffffffffffffffffff160217905550600a60003373ffffffffffffffffffffffffffffffffffffffff1673ffffffffffffffffffffffffffffffffffffffff168152602001908152602001600020600081548092919060010191905055507f5ce96853221960b4d0f15e4acf367ff9a23409c7c607e290ea4abd1cc5e40cf98184846040518084815260200180602001838152602001828103825284818151815260200191508051906020019080838360005b838110156122065780820151818401526020810190506121eb565b50505050905090810190601f1680156122335780820380516001836020036101000a031916815260200191505b5094505050505060405180910390a1505050565b602060405190810160405280600081525090565b828054600181600116156101000203166002900490600052602060002090601f016020900481019282601f1061229c57803560ff19168380011785556122ca565b828001600101855582156122ca579182015b828111156122c95782358255916020019190600101906122ae565b5b5090506122d7919061238d565b5090565b8154818355818115116123085760040281600402836000526020600020918201910161230791906123b2565b5b505050565b828054600181600116156101000203166002900490600052602060002090601f016020900481019282601f1061234e57805160ff191683800117855561237c565b8280016001018555821561237c579182015b8281111561237b578251825591602001919060010190612360565b5b509050612389919061238d565b5090565b6123af91905b808211156123ab576000816000905550600101612393565b5090565b90565b61240291905b808211156123fe57600080820160006123d19190612405565b600182016000905560028201600090556003820160006101000a81549060ff0219169055506004016123b8565b5090565b90565b50805460018160011615610100020316600290046000825580601f1061242b575061244a565b601f016020900490600052602060002090810190612449919061238d565b5b505600a165627a7a7230582031349d36569041145ff2cbc13d6f33ae50c21dc731b81e744cb3cf26d6b3e6c20029",
  "source": "pragma solidity ^0.4.18;\n\nimport './LionCoin.sol';\n\ncontract LionBase is LionCoin {\n\n    event NewLion(uint lionId, string name, uint dna);\n    event NewLionOnMarket(uint lionId, uint price);\n    event LionSold(uint lionId, uint price, address oldOwner, address newOwner);\n    event LionPriceChanged(uint lionId, uint price);\n\n    address public owner;\n\n    uint dnaDigits = 16;\n    uint dnaModulus = 10 ** dnaDigits;\n\n    uint marketLionCount;\n    uint purchaseCost = 5 * 10 ** 15; // 0.005 ether\n\n    struct Lion {\n      string name;\n      uint dna;\n      uint price;\n      bool onMarket;\n    }\n\n    Lion[] public lions;\n\n    mapping (uint => address) public lionToOwner;\n    mapping (address => uint) ownerLionCount;\n\n    modifier onlyOwner() {\n        require(msg.sender == owner);\n        _;\n    }\n\n    modifier onlyLionOwner(uint _lionId) {\n        require(msg.sender == lionToOwner[_lionId]);\n        _;\n    }\n\n    modifier costs(uint _price) {\n        require(msg.value >= _price);\n        _;\n    }\n\n    function LionBase() public {\n        owner = msg.sender;\n    }\n\n    function _createLion(string _name, uint _dna) internal {\n        uint id = lions.push(Lion(_name, _dna, 0, false)) - 1;\n        lionToOwner[id] = msg.sender;\n        ownerLionCount[msg.sender]++;\n        NewLion(id, _name, _dna);\n    }\n\n    function _generateRandomDna(string _str) private view returns (uint) {\n        uint rand = uint(keccak256(_str, block.timestamp, lions.length));\n        return rand % dnaModulus;\n    }\n\n    function createRandomLion(string _name) public onlyOwner {\n        uint randDna = _generateRandomDna(_name);\n        randDna = randDna - randDna % 100;\n        _createLion(_name, randDna);\n    }\n\n    function changeLionName(uint _lionId, string _newName) external onlyLionOwner(_lionId) {\n        lions[_lionId].name = _newName;\n    }\n\n    function getLionsByOwner(address _owner) external view returns(uint[]) {\n        uint[] memory result = new uint[](ownerLionCount[_owner]);\n        uint counter = 0;\n        for (uint i = 0; i < lions.length; i++) {\n            if (lionToOwner[i] == _owner) {\n                result[counter] = i;\n                counter++;\n            }\n        }\n        return result;\n    }\n\n    function setLionPrice(uint _lionId, uint _price) public onlyLionOwner(_lionId) {\n        require (_price >= 0);\n        lions[_lionId].price = _price;\n        LionPriceChanged(_lionId, _price);\n    }\n\n    function putLionOnMarket(uint _lionId, uint _price) public onlyLionOwner(_lionId) {\n        require (_price > 0);\n        marketLionCount++;\n        lions[_lionId].onMarket = true;\n        NewLionOnMarket(_lionId, _price);\n    }\n\n    function cancelLionOnMarket(uint _lionId) public onlyLionOwner(_lionId) {\n        lions[_lionId].onMarket = false;\n        marketLionCount--;\n    }\n\n    function buyLion(uint _lionId) public payable costs(purchaseCost) {\n        address oldOwner = lionToOwner[_lionId];\n        uint price = lions[_lionId].price;\n        require(balances[msg.sender] >= price);\n\n        balances[msg.sender] -= price;\n        balances[oldOwner] += price;\n        lions[_lionId].onMarket = false;\n        marketLionCount--;\n        ownerLionCount[oldOwner]--;\n        lionToOwner[_lionId] = msg.sender;\n        ownerLionCount[msg.sender]++;\n        LionSold(_lionId, price, oldOwner, msg.sender);\n    }\n\n    function getLionsOnMarket() external view returns(uint[]) {\n        uint[] memory result = new uint[](marketLionCount);\n        uint counter = 0;\n        for (uint i = 0; i < lions.length; i++) {\n            if (lions[i].onMarket) {\n                result[counter] = i;\n                counter++;\n            }\n        }\n        return result;\n    }\n}\n\n",
  "sourcePath": "/home/mateusz/crypto-lions/contracts/LionBase.sol",
  "compiler": {
    "name": "solc",
    "version": "0.4.19+commit.c4cbbb05.Emscripten.clang"
  },
  "schemaVersion": "1.0.1",
  "updatedAt": "2018-03-03T21:11:09.381Z"
}